{
  "_format": "hh-sol-artifact-1",
  "contractName": "Voting",
  "sourceName": "contracts/Voting.sol",
  "abi": [
    {
      "anonymous": false,
      "inputs": [
        {
          "indexed": false,
          "internalType": "uint256",
          "name": "electionId",
          "type": "uint256"
        },
        {
          "indexed": false,
          "internalType": "uint256",
          "name": "candidateId",
          "type": "uint256"
        },
        {
          "indexed": false,
          "internalType": "string",
          "name": "name",
          "type": "string"
        }
      ],
      "name": "CandidateAdded",
      "type": "event"
    },
    {
      "anonymous": false,
      "inputs": [
        {
          "indexed": false,
          "internalType": "uint256",
          "name": "electionId",
          "type": "uint256"
        },
        {
          "indexed": false,
          "internalType": "uint256",
          "name": "candidateId",
          "type": "uint256"
        }
      ],
      "name": "CandidateRemoved",
      "type": "event"
    },
    {
      "anonymous": false,
      "inputs": [
        {
          "indexed": false,
          "internalType": "uint256",
          "name": "electionId",
          "type": "uint256"
        },
        {
          "indexed": false,
          "internalType": "uint256",
          "name": "winnerId",
          "type": "uint256"
        },
        {
          "indexed": false,
          "internalType": "string",
          "name": "winnerName",
          "type": "string"
        },
        {
          "indexed": false,
          "internalType": "uint256",
          "name": "winnerVotes",
          "type": "uint256"
        }
      ],
      "name": "ElectionConcluded",
      "type": "event"
    },
    {
      "anonymous": false,
      "inputs": [
        {
          "indexed": false,
          "internalType": "uint256",
          "name": "electionId",
          "type": "uint256"
        },
        {
          "indexed": false,
          "internalType": "string",
          "name": "name",
          "type": "string"
        }
      ],
      "name": "ElectionCreated",
      "type": "event"
    },
    {
      "anonymous": false,
      "inputs": [
        {
          "indexed": false,
          "internalType": "uint256",
          "name": "electionId",
          "type": "uint256"
        },
        {
          "indexed": false,
          "internalType": "uint256",
          "name": "candidateId",
          "type": "uint256"
        },
        {
          "indexed": false,
          "internalType": "address",
          "name": "voter",
          "type": "address"
        }
      ],
      "name": "VoteCast",
      "type": "event"
    },
    {
      "inputs": [
        {
          "internalType": "uint256",
          "name": "_electionId",
          "type": "uint256"
        },
        {
          "internalType": "string",
          "name": "_name",
          "type": "string"
        }
      ],
      "name": "addCandidate",
      "outputs": [],
      "stateMutability": "nonpayable",
      "type": "function"
    },
    {
      "inputs": [],
      "name": "admin",
      "outputs": [
        {
          "internalType": "address",
          "name": "",
          "type": "address"
        }
      ],
      "stateMutability": "view",
      "type": "function"
    },
    {
      "inputs": [
        {
          "internalType": "uint256",
          "name": "_electionId",
          "type": "uint256"
        }
      ],
      "name": "concludeElection",
      "outputs": [],
      "stateMutability": "nonpayable",
      "type": "function"
    },
    {
      "inputs": [
        {
          "internalType": "string",
          "name": "_name",
          "type": "string"
        },
        {
          "internalType": "string[]",
          "name": "_candidateNames",
          "type": "string[]"
        }
      ],
      "name": "createElection",
      "outputs": [],
      "stateMutability": "nonpayable",
      "type": "function"
    },
    {
      "inputs": [],
      "name": "electionCount",
      "outputs": [
        {
          "internalType": "uint256",
          "name": "",
          "type": "uint256"
        }
      ],
      "stateMutability": "view",
      "type": "function"
    },
    {
      "inputs": [
        {
          "internalType": "uint256",
          "name": "",
          "type": "uint256"
        }
      ],
      "name": "electionWinner",
      "outputs": [
        {
          "internalType": "uint256",
          "name": "",
          "type": "uint256"
        }
      ],
      "stateMutability": "view",
      "type": "function"
    },
    {
      "inputs": [
        {
          "internalType": "uint256",
          "name": "_electionId",
          "type": "uint256"
        },
        {
          "internalType": "uint256",
          "name": "_candidateId",
          "type": "uint256"
        }
      ],
      "name": "getCandidate",
      "outputs": [
        {
          "components": [
            {
              "internalType": "uint256",
              "name": "id",
              "type": "uint256"
            },
            {
              "internalType": "string",
              "name": "name",
              "type": "string"
            },
            {
              "internalType": "uint256",
              "name": "voteCount",
              "type": "uint256"
            }
          ],
          "internalType": "struct Voting.Candidate",
          "name": "",
          "type": "tuple"
        }
      ],
      "stateMutability": "view",
      "type": "function"
    },
    {
      "inputs": [
        {
          "internalType": "uint256",
          "name": "_electionId",
          "type": "uint256"
        }
      ],
      "name": "getElection",
      "outputs": [
        {
          "internalType": "uint256",
          "name": "id",
          "type": "uint256"
        },
        {
          "internalType": "string",
          "name": "name",
          "type": "string"
        },
        {
          "internalType": "bool",
          "name": "isActive",
          "type": "bool"
        },
        {
          "internalType": "uint256",
          "name": "candidateCount",
          "type": "uint256"
        }
      ],
      "stateMutability": "view",
      "type": "function"
    },
    {
      "inputs": [
        {
          "internalType": "uint256",
          "name": "_electionId",
          "type": "uint256"
        }
      ],
      "name": "getElectionResults",
      "outputs": [
        {
          "internalType": "uint256[]",
          "name": "ids",
          "type": "uint256[]"
        },
        {
          "internalType": "string[]",
          "name": "names",
          "type": "string[]"
        },
        {
          "internalType": "uint256[]",
          "name": "votes",
          "type": "uint256[]"
        },
        {
          "internalType": "uint256",
          "name": "winnerId",
          "type": "uint256"
        }
      ],
      "stateMutability": "view",
      "type": "function"
    },
    {
      "inputs": [
        {
          "internalType": "uint256",
          "name": "",
          "type": "uint256"
        },
        {
          "internalType": "address",
          "name": "",
          "type": "address"
        }
      ],
      "name": "hasVoted",
      "outputs": [
        {
          "internalType": "bool",
          "name": "",
          "type": "bool"
        }
      ],
      "stateMutability": "view",
      "type": "function"
    },
    {
      "inputs": [
        {
          "internalType": "uint256",
          "name": "_electionId",
          "type": "uint256"
        },
        {
          "internalType": "address",
          "name": "_voter",
          "type": "address"
        }
      ],
      "name": "hasVotedInElection",
      "outputs": [
        {
          "internalType": "bool",
          "name": "",
          "type": "bool"
        }
      ],
      "stateMutability": "view",
      "type": "function"
    },
    {
      "inputs": [
        {
          "internalType": "uint256",
          "name": "_electionId",
          "type": "uint256"
        },
        {
          "internalType": "uint256",
          "name": "_candidateId",
          "type": "uint256"
        }
      ],
      "name": "removeCandidate",
      "outputs": [],
      "stateMutability": "nonpayable",
      "type": "function"
    },
    {
      "inputs": [],
      "name": "totalVotes",
      "outputs": [
        {
          "internalType": "uint256",
          "name": "",
          "type": "uint256"
        }
      ],
      "stateMutability": "view",
      "type": "function"
    },
    {
      "inputs": [
        {
          "internalType": "uint256",
          "name": "electionId",
          "type": "uint256"
        },
        {
          "internalType": "uint256",
          "name": "candidateId",
          "type": "uint256"
        }
      ],
      "name": "vote",
      "outputs": [],
      "stateMutability": "nonpayable",
      "type": "function"
    }
  ],
  "bytecode": "0x60806040527370997970c51812dc3a010c7d01b50e0d17dc79c86000806101000a81548173ffffffffffffffffffffffffffffffffffffffff021916908373ffffffffffffffffffffffffffffffffffffffff160217905550348015606357600080fd5b5061269f806100736000396000f3fe608060405234801561001057600080fd5b50600436106100ea5760003560e01c8063997d28301161008c578063d41fa75d11610066578063d41fa75d1461025e578063e8ededa61461028e578063f851a440146102c1578063fa901afa146102df576100ea565b8063997d2830146101f15780639d7107771461020f578063b384abef14610242576100ea565b806343859632116100c857806343859632146101455780634bd46448146101755780634fd2257b146101a55780635bc261fa146101c1576100ea565b80630d15fd77146100ef5780631750a3d01461010d578063349813b214610129575b600080fd5b6100f76102fb565b604051610104919061152f565b60405180910390f35b610127600480360381019061012291906116d0565b610301565b005b610143600480360381019061013e9190611812565b61050d565b005b61015f600480360381019061015a91906118e8565b61077c565b60405161016c9190611943565b60405180910390f35b61018f600480360381019061018a919061195e565b6107ab565b60405161019c9190611a7c565b60405180910390f35b6101bf60048036038101906101ba9190611a9e565b610893565b005b6101db60048036038101906101d691906118e8565b610b69565b6040516101e89190611943565b60405180910390f35b6101f9610bd1565b604051610206919061152f565b60405180910390f35b61022960048036038101906102249190611a9e565b610bd7565b6040516102399493929190611b15565b60405180910390f35b61025c6004803603810190610257919061195e565b610cb1565b005b61027860048036038101906102739190611a9e565b610f4a565b604051610285919061152f565b60405180910390f35b6102a860048036038101906102a39190611a9e565b610f62565b6040516102b89493929190611cd2565b60405180910390f35b6102c9611216565b6040516102d69190611d3b565b60405180910390f35b6102f960048036038101906102f4919061195e565b61123a565b005b60025481565b60008054906101000a900473ffffffffffffffffffffffffffffffffffffffff1673ffffffffffffffffffffffffffffffffffffffff163373ffffffffffffffffffffffffffffffffffffffff161461038f576040517f08c379a000000000000000000000000000000000000000000000000000000000815260040161038690611da2565b60405180910390fd5b60006003600084815260200190815260200160002090508060020160009054906101000a900460ff166103f7576040517f08c379a00000000000000000000000000000000000000000000000000000000081526004016103ee90611e0e565b60405180910390fd5b8060050160009054906101000a900460ff1615610449576040517f08c379a000000000000000000000000000000000000000000000000000000000815260040161044090611ea0565b60405180910390fd5b80600301600081548092919061045e90611eef565b91905055506040518060600160405280826003015481526020018381526020016000815250816004016000836003015481526020019081526020016000206000820151816000015560208201518160010190816104bb9190612143565b50604082015181600201559050507fed8911b3df733b7d5f75724158e54478ea12e30f49c9d31b5261879f5b76586f8382600301548460405161050093929190612215565b60405180910390a1505050565b60008054906101000a900473ffffffffffffffffffffffffffffffffffffffff1673ffffffffffffffffffffffffffffffffffffffff163373ffffffffffffffffffffffffffffffffffffffff161461059b576040517f08c379a000000000000000000000000000000000000000000000000000000000815260040161059290611da2565b60405180910390fd5b600160008154809291906105ae90611eef565b9190505550600060036000600154815260200190815260200160002090506001548160000181905550828160010190816105e89190612143565b5060018160020160006101000a81548160ff0219169083151502179055506000816003018190555060005b825181101561071e5781600301600081548092919061063190611eef565b919050555060405180606001604052808360030154815260200184838151811061065e5761065d612253565b5b602002602001015181526020016000815250826004016000846003015481526020019081526020016000206000820151816000015560208201518160010190816106a89190612143565b50604082015181600201559050507fed8911b3df733b7d5f75724158e54478ea12e30f49c9d31b5261879f5b76586f60015483600301548584815181106106f2576106f1612253565b5b602002602001015160405161070993929190612215565b60405180910390a18080600101915050610613565b5060018160050160006101000a81548160ff0219169083151502179055507f52be7c4e77b4de76b7607d621492061fe13b58597e72dfb5e51ab8f6187ed1416001548460405161076f929190612282565b60405180910390a1505050565b60046020528160005260406000206020528060005260406000206000915091509054906101000a900460ff1681565b6107b3611498565b600360008481526020019081526020016000206004016000838152602001908152602001600020604051806060016040529081600082015481526020016001820180546107ff90611f66565b80601f016020809104026020016040519081016040528092919081815260200182805461082b90611f66565b80156108785780601f1061084d57610100808354040283529160200191610878565b820191906000526020600020905b81548152906001019060200180831161085b57829003601f168201915b50505050508152602001600282015481525050905092915050565b60008054906101000a900473ffffffffffffffffffffffffffffffffffffffff1673ffffffffffffffffffffffffffffffffffffffff163373ffffffffffffffffffffffffffffffffffffffff1614610921576040517f08c379a000000000000000000000000000000000000000000000000000000000815260040161091890611da2565b60405180910390fd5b60008111801561093357506001548111155b610972576040517f08c379a0000000000000000000000000000000000000000000000000000000008152600401610969906122fe565b60405180910390fd5b60006003600083815260200190815260200160002090508060020160009054906101000a900460ff166109da576040517f08c379a00000000000000000000000000000000000000000000000000000000081526004016109d190611e0e565b60405180910390fd5b60008160020160006101000a81548160ff0219169083151502179055506000806000600190505b83600301548111610a4c57600084600401600083815260200190815260200160002060020154905082811115610a38578092508193505b508080610a4490611eef565b915050610a01565b50816005600086815260200190815260200160002081905550600060405180602001604052806000815250905060008314610b25578360040160008481526020019081526020016000206001018054610aa490611f66565b80601f0160208091040260200160405190810160405280929190818152602001828054610ad090611f66565b8015610b1d5780601f10610af257610100808354040283529160200191610b1d565b820191906000526020600020905b815481529060010190602001808311610b0057829003601f168201915b505050505090505b7fc8a67e8147bec0e856d73efac41c1dab75b8a3d7cee80851a178798dffe18cf585848385604051610b5a949392919061231e565b60405180910390a15050505050565b60006004600084815260200190815260200160002060008373ffffffffffffffffffffffffffffffffffffffff1673ffffffffffffffffffffffffffffffffffffffff16815260200190815260200160002060009054906101000a900460ff16905092915050565b60015481565b6000606060008060006003600087815260200190815260200160002090508060000154816001018260020160009054906101000a900460ff168360030154828054610c2190611f66565b80601f0160208091040260200160405190810160405280929190818152602001828054610c4d90611f66565b8015610c9a5780601f10610c6f57610100808354040283529160200191610c9a565b820191906000526020600020905b815481529060010190602001808311610c7d57829003601f168201915b505050505092509450945094509450509193509193565b600082118015610cc357506001548211155b610d02576040517f08c379a0000000000000000000000000000000000000000000000000000000008152600401610cf9906122fe565b60405180910390fd5b60006003600084815260200190815260200160002090508060020160009054906101000a900460ff16610d6a576040517f08c379a0000000000000000000000000000000000000000000000000000000008152600401610d61906123b6565b60405180910390fd5b600082118015610d7e575080600301548211155b610dbd576040517f08c379a0000000000000000000000000000000000000000000000000000000008152600401610db490612422565b60405180910390fd5b6004600084815260200190815260200160002060003373ffffffffffffffffffffffffffffffffffffffff1673ffffffffffffffffffffffffffffffffffffffff16815260200190815260200160002060009054906101000a900460ff1615610e5b576040517f08c379a0000000000000000000000000000000000000000000000000000000008152600401610e529061248e565b60405180910390fd5b60016004600085815260200190815260200160002060003373ffffffffffffffffffffffffffffffffffffffff1673ffffffffffffffffffffffffffffffffffffffff16815260200190815260200160002060006101000a81548160ff0219169083151502179055508060040160008381526020019081526020016000206002016000815480929190610eed90611eef565b919050555060026000815480929190610f0590611eef565b91905055507f7fe1d4e6b34e228b5dc059fcdc037c71b216fb2417f47c171e505144a5e4f5fc838333604051610f3d939291906124ae565b60405180910390a1505050565b60056020528060005260406000206000915090505481565b606080606060008085118015610f7a57506001548511155b610fb9576040517f08c379a0000000000000000000000000000000000000000000000000000000008152600401610fb0906122fe565b60405180910390fd5b60006003600087815260200190815260200160002090506000816003015490508067ffffffffffffffff811115610ff357610ff26115a5565b5b6040519080825280602002602001820160405280156110215781602001602082028036833780820191505090505b5095508067ffffffffffffffff81111561103e5761103d6115a5565b5b60405190808252806020026020018201604052801561107157816020015b606081526020019060019003908161105c5790505b5094508067ffffffffffffffff81111561108e5761108d6115a5565b5b6040519080825280602002602001820160405280156110bc5781602001602082028036833780820191505090505b50935060005b818110156111f65760006001826110d991906124e5565b905060008460040160008381526020019081526020016000209050806000015489848151811061110c5761110b612253565b5b60200260200101818152505080600101805461112790611f66565b80601f016020809104026020016040519081016040528092919081815260200182805461115390611f66565b80156111a05780601f10611175576101008083540402835291602001916111a0565b820191906000526020600020905b81548152906001019060200180831161118357829003601f168201915b50505050508884815181106111b8576111b7612253565b5b602002602001018190525080600201548784815181106111db576111da612253565b5b602002602001018181525050505080806001019150506110c2565b506005600088815260200190815260200160002054925050509193509193565b60008054906101000a900473ffffffffffffffffffffffffffffffffffffffff1681565b60008054906101000a900473ffffffffffffffffffffffffffffffffffffffff1673ffffffffffffffffffffffffffffffffffffffff163373ffffffffffffffffffffffffffffffffffffffff16146112c8576040517f08c379a00000000000000000000000000000000000000000000000000000000081526004016112bf90611da2565b60405180910390fd5b60006003600084815260200190815260200160002090508060020160009054906101000a900460ff16611330576040517f08c379a000000000000000000000000000000000000000000000000000000000815260040161132790611e0e565b60405180910390fd5b600082118015611344575080600301548211155b611383576040517f08c379a000000000000000000000000000000000000000000000000000000000815260040161137a90612422565b60405180910390fd5b6000816003015490508083146114075781600401600082815260200190815260200160002082600401600085815260200190815260200160002060008201548160000155600182018160010190816113db919061252f565b506002820154816002015590505082826004016000858152602001908152602001600020600001819055505b81600401600082815260200190815260200160002060008082016000905560018201600061143591906114b9565b6002820160009055505081600301600081548092919061145490612617565b91905055507f7e1371fe87beaf1977d485876066445a77e554f414a828481e6b014c21e6aaf6848460405161148a929190612640565b60405180910390a150505050565b60405180606001604052806000815260200160608152602001600081525090565b5080546114c590611f66565b6000825580601f106114d757506114f6565b601f0160209004906000526020600020908101906114f591906114f9565b5b50565b5b808211156115125760008160009055506001016114fa565b5090565b6000819050919050565b61152981611516565b82525050565b60006020820190506115446000830184611520565b92915050565b6000604051905090565b600080fd5b600080fd5b61156781611516565b811461157257600080fd5b50565b6000813590506115848161155e565b92915050565b600080fd5b600080fd5b6000601f19601f8301169050919050565b7f4e487b7100000000000000000000000000000000000000000000000000000000600052604160045260246000fd5b6115dd82611594565b810181811067ffffffffffffffff821117156115fc576115fb6115a5565b5b80604052505050565b600061160f61154a565b905061161b82826115d4565b919050565b600067ffffffffffffffff82111561163b5761163a6115a5565b5b61164482611594565b9050602081019050919050565b82818337600083830152505050565b600061167361166e84611620565b611605565b90508281526020810184848401111561168f5761168e61158f565b5b61169a848285611651565b509392505050565b600082601f8301126116b7576116b661158a565b5b81356116c7848260208601611660565b91505092915050565b600080604083850312156116e7576116e6611554565b5b60006116f585828601611575565b925050602083013567ffffffffffffffff81111561171657611715611559565b5b611722858286016116a2565b9150509250929050565b600067ffffffffffffffff821115611747576117466115a5565b5b602082029050602081019050919050565b600080fd5b600061177061176b8461172c565b611605565b9050808382526020820190506020840283018581111561179357611792611758565b5b835b818110156117da57803567ffffffffffffffff8111156117b8576117b761158a565b5b8086016117c589826116a2565b85526020850194505050602081019050611795565b5050509392505050565b600082601f8301126117f9576117f861158a565b5b813561180984826020860161175d565b91505092915050565b6000806040838503121561182957611828611554565b5b600083013567ffffffffffffffff81111561184757611846611559565b5b611853858286016116a2565b925050602083013567ffffffffffffffff81111561187457611873611559565b5b611880858286016117e4565b9150509250929050565b600073ffffffffffffffffffffffffffffffffffffffff82169050919050565b60006118b58261188a565b9050919050565b6118c5816118aa565b81146118d057600080fd5b50565b6000813590506118e2816118bc565b92915050565b600080604083850312156118ff576118fe611554565b5b600061190d85828601611575565b925050602061191e858286016118d3565b9150509250929050565b60008115159050919050565b61193d81611928565b82525050565b60006020820190506119586000830184611934565b92915050565b6000806040838503121561197557611974611554565b5b600061198385828601611575565b925050602061199485828601611575565b9150509250929050565b6119a781611516565b82525050565b600081519050919050565b600082825260208201905092915050565b60005b838110156119e75780820151818401526020810190506119cc565b60008484015250505050565b60006119fe826119ad565b611a0881856119b8565b9350611a188185602086016119c9565b611a2181611594565b840191505092915050565b6000606083016000830151611a44600086018261199e565b5060208301518482036020860152611a5c82826119f3565b9150506040830151611a71604086018261199e565b508091505092915050565b60006020820190508181036000830152611a968184611a2c565b905092915050565b600060208284031215611ab457611ab3611554565b5b6000611ac284828501611575565b91505092915050565b600082825260208201905092915050565b6000611ae7826119ad565b611af18185611acb565b9350611b018185602086016119c9565b611b0a81611594565b840191505092915050565b6000608082019050611b2a6000830187611520565b8181036020830152611b3c8186611adc565b9050611b4b6040830185611934565b611b586060830184611520565b95945050505050565b600081519050919050565b600082825260208201905092915050565b6000819050602082019050919050565b6000611b99838361199e565b60208301905092915050565b6000602082019050919050565b6000611bbd82611b61565b611bc78185611b6c565b9350611bd283611b7d565b8060005b83811015611c03578151611bea8882611b8d565b9750611bf583611ba5565b925050600181019050611bd6565b5085935050505092915050565b600081519050919050565b600082825260208201905092915050565b6000819050602082019050919050565b6000611c4883836119f3565b905092915050565b6000602082019050919050565b6000611c6882611c10565b611c728185611c1b565b935083602082028501611c8485611c2c565b8060005b85811015611cc05784840389528151611ca18582611c3c565b9450611cac83611c50565b925060208a01995050600181019050611c88565b50829750879550505050505092915050565b60006080820190508181036000830152611cec8187611bb2565b90508181036020830152611d008186611c5d565b90508181036040830152611d148185611bb2565b9050611d236060830184611520565b95945050505050565b611d35816118aa565b82525050565b6000602082019050611d506000830184611d2c565b92915050565b7f4f6e6c792061646d696e2063616e20706572666f726d20746869730000000000600082015250565b6000611d8c601b83611acb565b9150611d9782611d56565b602082019050919050565b60006020820190508181036000830152611dbb81611d7f565b9050919050565b7f456c656374696f6e206e6f742061637469766500000000000000000000000000600082015250565b6000611df8601383611acb565b9150611e0382611dc2565b602082019050919050565b60006020820190508181036000830152611e2781611deb565b9050919050565b7f43616e6469646174657320617265206c6f636b656420666f722074686973206560008201527f6c656374696f6e00000000000000000000000000000000000000000000000000602082015250565b6000611e8a602783611acb565b9150611e9582611e2e565b604082019050919050565b60006020820190508181036000830152611eb981611e7d565b9050919050565b7f4e487b7100000000000000000000000000000000000000000000000000000000600052601160045260246000fd5b6000611efa82611516565b91507fffffffffffffffffffffffffffffffffffffffffffffffffffffffffffffffff8203611f2c57611f2b611ec0565b5b600182019050919050565b7f4e487b7100000000000000000000000000000000000000000000000000000000600052602260045260246000fd5b60006002820490506001821680611f7e57607f821691505b602082108103611f9157611f90611f37565b5b50919050565b60008190508160005260206000209050919050565b60006020601f8301049050919050565b600082821b905092915050565b600060088302611ff97fffffffffffffffffffffffffffffffffffffffffffffffffffffffffffffffff82611fbc565b6120038683611fbc565b95508019841693508086168417925050509392505050565b6000819050919050565b600061204061203b61203684611516565b61201b565b611516565b9050919050565b6000819050919050565b61205a83612025565b61206e61206682612047565b848454611fc9565b825550505050565b600090565b612083612076565b61208e818484612051565b505050565b5b818110156120b2576120a760008261207b565b600181019050612094565b5050565b601f8211156120f7576120c881611f97565b6120d184611fac565b810160208510156120e0578190505b6120f46120ec85611fac565b830182612093565b50505b505050565b600082821c905092915050565b600061211a600019846008026120fc565b1980831691505092915050565b60006121338383612109565b9150826002028217905092915050565b61214c826119ad565b67ffffffffffffffff811115612165576121646115a5565b5b61216f8254611f66565b61217a8282856120b6565b600060209050601f8311600181146121ad576000841561219b578287015190505b6121a58582612127565b86555061220d565b601f1984166121bb86611f97565b60005b828110156121e3578489015182556001820191506020850194506020810190506121be565b8683101561220057848901516121fc601f891682612109565b8355505b6001600288020188555050505b505050505050565b600060608201905061222a6000830186611520565b6122376020830185611520565b81810360408301526122498184611adc565b9050949350505050565b7f4e487b7100000000000000000000000000000000000000000000000000000000600052603260045260246000fd5b60006040820190506122976000830185611520565b81810360208301526122a98184611adc565b90509392505050565b7f496e76616c696420656c656374696f6e49640000000000000000000000000000600082015250565b60006122e8601283611acb565b91506122f3826122b2565b602082019050919050565b60006020820190508181036000830152612317816122db565b9050919050565b60006080820190506123336000830187611520565b6123406020830186611520565b81810360408301526123528185611adc565b90506123616060830184611520565b95945050505050565b7f456c656374696f6e206973206e6f742061637469766500000000000000000000600082015250565b60006123a0601683611acb565b91506123ab8261236a565b602082019050919050565b600060208201905081810360008301526123cf81612393565b9050919050565b7f496e76616c69642063616e646964617465496400000000000000000000000000600082015250565b600061240c601383611acb565b9150612417826123d6565b602082019050919050565b6000602082019050818103600083015261243b816123ff565b9050919050565b7f596f75206861766520616c726561647920766f74656400000000000000000000600082015250565b6000612478601683611acb565b915061248382612442565b602082019050919050565b600060208201905081810360008301526124a78161246b565b9050919050565b60006060820190506124c36000830186611520565b6124d06020830185611520565b6124dd6040830184611d2c565b949350505050565b60006124f082611516565b91506124fb83611516565b925082820190508082111561251357612512611ec0565b5b92915050565b60008154905061252881611f66565b9050919050565b81810361253d575050612615565b61254682612519565b67ffffffffffffffff81111561255f5761255e6115a5565b5b6125698254611f66565b6125748282856120b6565b6000601f8311600181146125a35760008415612591578287015490505b61259b8582612127565b86555061260e565b601f1984166125b187611f97565b96506125bc86611f97565b60005b828110156125e4578489015482556001820191506001850194506020810190506125bf565b8683101561260157848901546125fd601f891682612109565b8355505b6001600288020188555050505b5050505050505b565b600061262282611516565b91506000820361263557612634611ec0565b5b600182039050919050565b60006040820190506126556000830185611520565b6126626020830184611520565b939250505056fea26469706673582212205d14839fa050c0983912aee1d01b9bcd8ddd850fe9f07e569be0d278ed48b1d564736f6c634300081c0033",
  "linkReferences": {},
  "deployedLinkReferences": {}
}