{
  "_format": "hh-sol-artifact-1",
  "contractName": "Voting",
  "sourceName": "contracts/Voting.sol",
  "abi": [
    {
      "anonymous": false,
      "inputs": [
        {
          "indexed": false,
          "internalType": "uint256",
          "name": "electionId",
          "type": "uint256"
        },
        {
          "indexed": false,
          "internalType": "uint256",
          "name": "candidateId",
          "type": "uint256"
        },
        {
          "indexed": false,
          "internalType": "string",
          "name": "name",
          "type": "string"
        }
      ],
      "name": "CandidateAdded",
      "type": "event"
    },
    {
      "anonymous": false,
      "inputs": [
        {
          "indexed": false,
          "internalType": "uint256",
          "name": "electionId",
          "type": "uint256"
        },
        {
          "indexed": false,
          "internalType": "uint256",
          "name": "candidateId",
          "type": "uint256"
        }
      ],
      "name": "CandidateRemoved",
      "type": "event"
    },
    {
      "anonymous": false,
      "inputs": [
        {
          "indexed": false,
          "internalType": "uint256",
          "name": "electionId",
          "type": "uint256"
        },
        {
          "indexed": false,
          "internalType": "uint256",
          "name": "winnerId",
          "type": "uint256"
        },
        {
          "indexed": false,
          "internalType": "string",
          "name": "winnerName",
          "type": "string"
        },
        {
          "indexed": false,
          "internalType": "uint256",
          "name": "winnerVotes",
          "type": "uint256"
        }
      ],
      "name": "ElectionConcluded",
      "type": "event"
    },
    {
      "anonymous": false,
      "inputs": [
        {
          "indexed": false,
          "internalType": "uint256",
          "name": "electionId",
          "type": "uint256"
        },
        {
          "indexed": false,
          "internalType": "string",
          "name": "name",
          "type": "string"
        }
      ],
      "name": "ElectionCreated",
      "type": "event"
    },
    {
      "anonymous": false,
      "inputs": [
        {
          "indexed": false,
          "internalType": "uint256",
          "name": "electionId",
          "type": "uint256"
        },
        {
          "indexed": false,
          "internalType": "uint256",
          "name": "candidateId",
          "type": "uint256"
        },
        {
          "indexed": false,
          "internalType": "address",
          "name": "voter",
          "type": "address"
        }
      ],
      "name": "VoteCast",
      "type": "event"
    },
    {
      "inputs": [
        {
          "internalType": "uint256",
          "name": "_electionId",
          "type": "uint256"
        },
        {
          "internalType": "string",
          "name": "_name",
          "type": "string"
        }
      ],
      "name": "addCandidate",
      "outputs": [],
      "stateMutability": "nonpayable",
      "type": "function"
    },
    {
      "inputs": [],
      "name": "admin",
      "outputs": [
        {
          "internalType": "address",
          "name": "",
          "type": "address"
        }
      ],
      "stateMutability": "view",
      "type": "function"
    },
    {
      "inputs": [
        {
          "internalType": "uint256",
          "name": "_electionId",
          "type": "uint256"
        }
      ],
      "name": "autoCheckAndConcludeElection",
      "outputs": [],
      "stateMutability": "nonpayable",
      "type": "function"
    },
    {
      "inputs": [
        {
          "internalType": "uint256",
          "name": "_electionId",
          "type": "uint256"
        }
      ],
      "name": "concludeElection",
      "outputs": [],
      "stateMutability": "nonpayable",
      "type": "function"
    },
    {
      "inputs": [
        {
          "internalType": "string",
          "name": "_name",
          "type": "string"
        },
        {
          "internalType": "string[]",
          "name": "_candidateNames",
          "type": "string[]"
        },
        {
          "internalType": "uint256",
          "name": "_durationSeconds",
          "type": "uint256"
        }
      ],
      "name": "createElection",
      "outputs": [],
      "stateMutability": "nonpayable",
      "type": "function"
    },
    {
      "inputs": [],
      "name": "electionCount",
      "outputs": [
        {
          "internalType": "uint256",
          "name": "",
          "type": "uint256"
        }
      ],
      "stateMutability": "view",
      "type": "function"
    },
    {
      "inputs": [
        {
          "internalType": "uint256",
          "name": "",
          "type": "uint256"
        }
      ],
      "name": "electionWinner",
      "outputs": [
        {
          "internalType": "uint256",
          "name": "",
          "type": "uint256"
        }
      ],
      "stateMutability": "view",
      "type": "function"
    },
    {
      "inputs": [
        {
          "internalType": "uint256",
          "name": "_electionId",
          "type": "uint256"
        },
        {
          "internalType": "uint256",
          "name": "_candidateId",
          "type": "uint256"
        }
      ],
      "name": "getCandidate",
      "outputs": [
        {
          "components": [
            {
              "internalType": "uint256",
              "name": "id",
              "type": "uint256"
            },
            {
              "internalType": "string",
              "name": "name",
              "type": "string"
            },
            {
              "internalType": "uint256",
              "name": "voteCount",
              "type": "uint256"
            }
          ],
          "internalType": "struct Voting.Candidate",
          "name": "",
          "type": "tuple"
        }
      ],
      "stateMutability": "view",
      "type": "function"
    },
    {
      "inputs": [],
      "name": "getCurrentTimestamp",
      "outputs": [
        {
          "internalType": "uint256",
          "name": "",
          "type": "uint256"
        }
      ],
      "stateMutability": "view",
      "type": "function"
    },
    {
      "inputs": [
        {
          "internalType": "uint256",
          "name": "_electionId",
          "type": "uint256"
        }
      ],
      "name": "getElection",
      "outputs": [
        {
          "internalType": "uint256",
          "name": "id",
          "type": "uint256"
        },
        {
          "internalType": "string",
          "name": "name",
          "type": "string"
        },
        {
          "internalType": "bool",
          "name": "isActive",
          "type": "bool"
        },
        {
          "internalType": "uint256",
          "name": "candidateCount",
          "type": "uint256"
        },
        {
          "internalType": "uint256",
          "name": "endTime",
          "type": "uint256"
        }
      ],
      "stateMutability": "view",
      "type": "function"
    },
    {
      "inputs": [
        {
          "internalType": "uint256",
          "name": "_electionId",
          "type": "uint256"
        }
      ],
      "name": "getElectionResults",
      "outputs": [
        {
          "internalType": "uint256[]",
          "name": "ids",
          "type": "uint256[]"
        },
        {
          "internalType": "string[]",
          "name": "names",
          "type": "string[]"
        },
        {
          "internalType": "uint256[]",
          "name": "votes",
          "type": "uint256[]"
        },
        {
          "internalType": "uint256",
          "name": "winnerId",
          "type": "uint256"
        }
      ],
      "stateMutability": "view",
      "type": "function"
    },
    {
      "inputs": [
        {
          "internalType": "uint256",
          "name": "",
          "type": "uint256"
        },
        {
          "internalType": "address",
          "name": "",
          "type": "address"
        }
      ],
      "name": "hasVoted",
      "outputs": [
        {
          "internalType": "bool",
          "name": "",
          "type": "bool"
        }
      ],
      "stateMutability": "view",
      "type": "function"
    },
    {
      "inputs": [
        {
          "internalType": "uint256",
          "name": "_electionId",
          "type": "uint256"
        },
        {
          "internalType": "address",
          "name": "_voter",
          "type": "address"
        }
      ],
      "name": "hasVotedInElection",
      "outputs": [
        {
          "internalType": "bool",
          "name": "",
          "type": "bool"
        }
      ],
      "stateMutability": "view",
      "type": "function"
    },
    {
      "inputs": [
        {
          "internalType": "uint256",
          "name": "_electionId",
          "type": "uint256"
        },
        {
          "internalType": "uint256",
          "name": "_candidateId",
          "type": "uint256"
        }
      ],
      "name": "removeCandidate",
      "outputs": [],
      "stateMutability": "nonpayable",
      "type": "function"
    },
    {
      "inputs": [],
      "name": "totalVotes",
      "outputs": [
        {
          "internalType": "uint256",
          "name": "",
          "type": "uint256"
        }
      ],
      "stateMutability": "view",
      "type": "function"
    },
    {
      "inputs": [
        {
          "internalType": "uint256",
          "name": "electionId",
          "type": "uint256"
        },
        {
          "internalType": "uint256",
          "name": "candidateId",
          "type": "uint256"
        }
      ],
      "name": "vote",
      "outputs": [],
      "stateMutability": "nonpayable",
      "type": "function"
    }
  ],
  "bytecode": "0x60806040527370997970c51812dc3a010c7d01b50e0d17dc79c86000806101000a81548173ffffffffffffffffffffffffffffffffffffffff021916908373ffffffffffffffffffffffffffffffffffffffff160217905550348015606357600080fd5b506129d3806100736000396000f3fe608060405234801561001057600080fd5b50600436106101005760003560e01c80639d71077711610097578063ddd5790a11610066578063ddd5790a146102c3578063e8ededa6146102df578063f851a44014610312578063fa901afa1461033057610100565b80639d71077714610227578063b31dc8751461025b578063b384abef14610277578063d41fa75d1461029357610100565b80634fd2257b116100d35780634fd2257b1461019f5780635bc261fa146101bb5780636c9230db146101eb578063997d28301461020957610100565b80630d15fd77146101055780631750a3d014610123578063438596321461013f5780634bd464481461016f575b600080fd5b61010d61034c565b60405161011a919061176a565b60405180910390f35b61013d6004803603810190610138919061190b565b610352565b005b610159600480360381019061015491906119c5565b61055e565b6040516101669190611a20565b60405180910390f35b61018960048036038101906101849190611a3b565b61058d565b6040516101969190611b59565b60405180910390f35b6101b960048036038101906101b49190611b7b565b610675565b005b6101d560048036038101906101d091906119c5565b610992565b6040516101e29190611a20565b60405180910390f35b6101f36109fa565b604051610200919061176a565b60405180910390f35b610211610a02565b60405161021e919061176a565b60405180910390f35b610241600480360381019061023c9190611b7b565b610a08565b604051610252959493929190611bf2565b60405180910390f35b61027560048036038101906102709190611d32565b610aec565b005b610291600480360381019061028c9190611a3b565b610d70565b005b6102ad60048036038101906102a89190611b7b565b61104f565b6040516102ba919061176a565b60405180910390f35b6102dd60048036038101906102d89190611b7b565b611067565b005b6102f960048036038101906102f49190611b7b565b611192565b6040516103099493929190611f2e565b60405180910390f35b61031a611451565b6040516103279190611f97565b60405180910390f35b61034a60048036038101906103459190611a3b565b611475565b005b60025481565b60008054906101000a900473ffffffffffffffffffffffffffffffffffffffff1673ffffffffffffffffffffffffffffffffffffffff163373ffffffffffffffffffffffffffffffffffffffff16146103e0576040517f08c379a00000000000000000000000000000000000000000000000000000000081526004016103d790611ffe565b60405180910390fd5b60006003600084815260200190815260200160002090508060020160009054906101000a900460ff16610448576040517f08c379a000000000000000000000000000000000000000000000000000000000815260040161043f9061206a565b60405180910390fd5b8060050160009054906101000a900460ff161561049a576040517f08c379a0000000000000000000000000000000000000000000000000000000008152600401610491906120fc565b60405180910390fd5b8060030160008154809291906104af9061214b565b919050555060405180606001604052808260030154815260200183815260200160008152508160040160008360030154815260200190815260200160002060008201518160000155602082015181600101908161050c919061239f565b50604082015181600201559050507fed8911b3df733b7d5f75724158e54478ea12e30f49c9d31b5261879f5b76586f8382600301548460405161055193929190612471565b60405180910390a1505050565b60046020528160005260406000206020528060005260406000206000915091509054906101000a900460ff1681565b6105956116d3565b600360008481526020019081526020016000206004016000838152602001908152602001600020604051806060016040529081600082015481526020016001820180546105e1906121c2565b80601f016020809104026020016040519081016040528092919081815260200182805461060d906121c2565b801561065a5780601f1061062f5761010080835404028352916020019161065a565b820191906000526020600020905b81548152906001019060200180831161063d57829003601f168201915b50505050508152602001600282015481525050905092915050565b60008054906101000a900473ffffffffffffffffffffffffffffffffffffffff1673ffffffffffffffffffffffffffffffffffffffff163373ffffffffffffffffffffffffffffffffffffffff1614610703576040517f08c379a00000000000000000000000000000000000000000000000000000000081526004016106fa90611ffe565b60405180910390fd5b60008111801561071557506001548111155b610754576040517f08c379a000000000000000000000000000000000000000000000000000000000815260040161074b906124fb565b60405180910390fd5b60006003600083815260200190815260200160002090508060020160009054906101000a900460ff166107bc576040517f08c379a00000000000000000000000000000000000000000000000000000000081526004016107b39061206a565b60405180910390fd5b8060060154421015610803576040517f08c379a00000000000000000000000000000000000000000000000000000000081526004016107fa90612567565b60405180910390fd5b60008160020160006101000a81548160ff0219169083151502179055506000806000600190505b8360030154811161087557600084600401600083815260200190815260200160002060020154905082811115610861578092508193505b50808061086d9061214b565b91505061082a565b5081600560008681526020019081526020016000208190555060006040518060200160405280600081525090506000831461094e5783600401600084815260200190815260200160002060010180546108cd906121c2565b80601f01602080910402602001604051908101604052809291908181526020018280546108f9906121c2565b80156109465780601f1061091b57610100808354040283529160200191610946565b820191906000526020600020905b81548152906001019060200180831161092957829003601f168201915b505050505090505b7fc8a67e8147bec0e856d73efac41c1dab75b8a3d7cee80851a178798dffe18cf5858483856040516109839493929190612587565b60405180910390a15050505050565b60006004600084815260200190815260200160002060008373ffffffffffffffffffffffffffffffffffffffff1673ffffffffffffffffffffffffffffffffffffffff16815260200190815260200160002060009054906101000a900460ff16905092915050565b600042905090565b60015481565b600060606000806000806003600088815260200190815260200160002090508060000154816001018260020160009054906101000a900460ff1683600301548460060154838054610a58906121c2565b80601f0160208091040260200160405190810160405280929190818152602001828054610a84906121c2565b8015610ad15780601f10610aa657610100808354040283529160200191610ad1565b820191906000526020600020905b815481529060010190602001808311610ab457829003601f168201915b50505050509350955095509550955095505091939590929450565b60008054906101000a900473ffffffffffffffffffffffffffffffffffffffff1673ffffffffffffffffffffffffffffffffffffffff163373ffffffffffffffffffffffffffffffffffffffff1614610b7a576040517f08c379a0000000000000000000000000000000000000000000000000000000008152600401610b7190611ffe565b60405180910390fd5b60016000815480929190610b8d9061214b565b919050555060006003600060015481526020019081526020016000209050600154816000018190555083816001019081610bc7919061239f565b5060018160020160006101000a81548160ff021916908315150217905550600081600301819055508142610bfb91906125d3565b816006018190555060005b8351811015610d1157816003016000815480929190610c249061214b565b9190505550604051806060016040528083600301548152602001858381518110610c5157610c50612607565b5b60200260200101518152602001600081525082600401600084600301548152602001908152602001600020600082015181600001556020820151816001019081610c9b919061239f565b50604082015181600201559050507fed8911b3df733b7d5f75724158e54478ea12e30f49c9d31b5261879f5b76586f6001548360030154868481518110610ce557610ce4612607565b5b6020026020010151604051610cfc93929190612471565b60405180910390a18080600101915050610c06565b5060018160050160006101000a81548160ff0219169083151502179055507f52be7c4e77b4de76b7607d621492061fe13b58597e72dfb5e51ab8f6187ed14160015485604051610d62929190612636565b60405180910390a150505050565b600082118015610d8257506001548211155b610dc1576040517f08c379a0000000000000000000000000000000000000000000000000000000008152600401610db8906124fb565b60405180910390fd5b60006003600084815260200190815260200160002090508060020160009054906101000a900460ff16610e29576040517f08c379a0000000000000000000000000000000000000000000000000000000008152600401610e20906126b2565b60405180910390fd5b80600601544210610e6f576040517f08c379a0000000000000000000000000000000000000000000000000000000008152600401610e669061271e565b60405180910390fd5b600082118015610e83575080600301548211155b610ec2576040517f08c379a0000000000000000000000000000000000000000000000000000000008152600401610eb99061278a565b60405180910390fd5b6004600084815260200190815260200160002060003373ffffffffffffffffffffffffffffffffffffffff1673ffffffffffffffffffffffffffffffffffffffff16815260200190815260200160002060009054906101000a900460ff1615610f60576040517f08c379a0000000000000000000000000000000000000000000000000000000008152600401610f57906127f6565b60405180910390fd5b60016004600085815260200190815260200160002060003373ffffffffffffffffffffffffffffffffffffffff1673ffffffffffffffffffffffffffffffffffffffff16815260200190815260200160002060006101000a81548160ff0219169083151502179055508060040160008381526020019081526020016000206002016000815480929190610ff29061214b565b91905055506002600081548092919061100a9061214b565b91905055507f7fe1d4e6b34e228b5dc059fcdc037c71b216fb2417f47c171e505144a5e4f5fc83833360405161104293929190612816565b60405180910390a1505050565b60056020528060005260406000206000915090505481565b60008054906101000a900473ffffffffffffffffffffffffffffffffffffffff1673ffffffffffffffffffffffffffffffffffffffff163373ffffffffffffffffffffffffffffffffffffffff16146110f5576040517f08c379a00000000000000000000000000000000000000000000000000000000081526004016110ec90611ffe565b60405180910390fd5b60008111801561110757506001548111155b611146576040517f08c379a000000000000000000000000000000000000000000000000000000000815260040161113d906124fb565b60405180910390fd5b60006003600083815260200190815260200160002090508060020160009054906101000a900460ff16801561117f575080600601544210155b1561118e5761118d82610675565b5b5050565b6060806060600080851180156111aa57506001548511155b6111e9576040517f08c379a00000000000000000000000000000000000000000000000000000000081526004016111e0906124fb565b60405180910390fd5b60006003600087815260200190815260200160002090506000816003015490508067ffffffffffffffff811115611223576112226117e0565b5b6040519080825280602002602001820160405280156112515781602001602082028036833780820191505090505b5095508067ffffffffffffffff81111561126e5761126d6117e0565b5b6040519080825280602002602001820160405280156112a157816020015b606081526020019060019003908161128c5790505b5094508067ffffffffffffffff8111156112be576112bd6117e0565b5b6040519080825280602002602001820160405280156112ec5781602001602082028036833780820191505090505b509350600092506000805b8281101561144657600060018261130e91906125d3565b90506000856004016000838152602001908152602001600020905080600001548a848151811061134157611340612607565b5b60200260200101818152505080600101805461135c906121c2565b80601f0160208091040260200160405190810160405280929190818152602001828054611388906121c2565b80156113d55780601f106113aa576101008083540402835291602001916113d5565b820191906000526020600020905b8154815290600101906020018083116113b857829003601f168201915b50505050508984815181106113ed576113ec612607565b5b602002602001018190525080600201548884815181106114105761140f612607565b5b60200260200101818152505083816002015411156114375780600201549350806000015496505b505080806001019150506112f7565b505050509193509193565b60008054906101000a900473ffffffffffffffffffffffffffffffffffffffff1681565b60008054906101000a900473ffffffffffffffffffffffffffffffffffffffff1673ffffffffffffffffffffffffffffffffffffffff163373ffffffffffffffffffffffffffffffffffffffff1614611503576040517f08c379a00000000000000000000000000000000000000000000000000000000081526004016114fa90611ffe565b60405180910390fd5b60006003600084815260200190815260200160002090508060020160009054906101000a900460ff1661156b576040517f08c379a00000000000000000000000000000000000000000000000000000000081526004016115629061206a565b60405180910390fd5b60008211801561157f575080600301548211155b6115be576040517f08c379a00000000000000000000000000000000000000000000000000000000081526004016115b59061278a565b60405180910390fd5b6000816003015490508083146116425781600401600082815260200190815260200160002082600401600085815260200190815260200160002060008201548160000155600182018160010190816116169190612863565b506002820154816002015590505082826004016000858152602001908152602001600020600001819055505b81600401600082815260200190815260200160002060008082016000905560018201600061167091906116f4565b6002820160009055505081600301600081548092919061168f9061294b565b91905055507f7e1371fe87beaf1977d485876066445a77e554f414a828481e6b014c21e6aaf684846040516116c5929190612974565b60405180910390a150505050565b60405180606001604052806000815260200160608152602001600081525090565b508054611700906121c2565b6000825580601f106117125750611731565b601f0160209004906000526020600020908101906117309190611734565b5b50565b5b8082111561174d576000816000905550600101611735565b5090565b6000819050919050565b61176481611751565b82525050565b600060208201905061177f600083018461175b565b92915050565b6000604051905090565b600080fd5b600080fd5b6117a281611751565b81146117ad57600080fd5b50565b6000813590506117bf81611799565b92915050565b600080fd5b600080fd5b6000601f19601f8301169050919050565b7f4e487b7100000000000000000000000000000000000000000000000000000000600052604160045260246000fd5b611818826117cf565b810181811067ffffffffffffffff82111715611837576118366117e0565b5b80604052505050565b600061184a611785565b9050611856828261180f565b919050565b600067ffffffffffffffff821115611876576118756117e0565b5b61187f826117cf565b9050602081019050919050565b82818337600083830152505050565b60006118ae6118a98461185b565b611840565b9050828152602081018484840111156118ca576118c96117ca565b5b6118d584828561188c565b509392505050565b600082601f8301126118f2576118f16117c5565b5b813561190284826020860161189b565b91505092915050565b600080604083850312156119225761192161178f565b5b6000611930858286016117b0565b925050602083013567ffffffffffffffff81111561195157611950611794565b5b61195d858286016118dd565b9150509250929050565b600073ffffffffffffffffffffffffffffffffffffffff82169050919050565b600061199282611967565b9050919050565b6119a281611987565b81146119ad57600080fd5b50565b6000813590506119bf81611999565b92915050565b600080604083850312156119dc576119db61178f565b5b60006119ea858286016117b0565b92505060206119fb858286016119b0565b9150509250929050565b60008115159050919050565b611a1a81611a05565b82525050565b6000602082019050611a356000830184611a11565b92915050565b60008060408385031215611a5257611a5161178f565b5b6000611a60858286016117b0565b9250506020611a71858286016117b0565b9150509250929050565b611a8481611751565b82525050565b600081519050919050565b600082825260208201905092915050565b60005b83811015611ac4578082015181840152602081019050611aa9565b60008484015250505050565b6000611adb82611a8a565b611ae58185611a95565b9350611af5818560208601611aa6565b611afe816117cf565b840191505092915050565b6000606083016000830151611b216000860182611a7b565b5060208301518482036020860152611b398282611ad0565b9150506040830151611b4e6040860182611a7b565b508091505092915050565b60006020820190508181036000830152611b738184611b09565b905092915050565b600060208284031215611b9157611b9061178f565b5b6000611b9f848285016117b0565b91505092915050565b600082825260208201905092915050565b6000611bc482611a8a565b611bce8185611ba8565b9350611bde818560208601611aa6565b611be7816117cf565b840191505092915050565b600060a082019050611c07600083018861175b565b8181036020830152611c198187611bb9565b9050611c286040830186611a11565b611c35606083018561175b565b611c42608083018461175b565b9695505050505050565b600067ffffffffffffffff821115611c6757611c666117e0565b5b602082029050602081019050919050565b600080fd5b6000611c90611c8b84611c4c565b611840565b90508083825260208201905060208402830185811115611cb357611cb2611c78565b5b835b81811015611cfa57803567ffffffffffffffff811115611cd857611cd76117c5565b5b808601611ce589826118dd565b85526020850194505050602081019050611cb5565b5050509392505050565b600082601f830112611d1957611d186117c5565b5b8135611d29848260208601611c7d565b91505092915050565b600080600060608486031215611d4b57611d4a61178f565b5b600084013567ffffffffffffffff811115611d6957611d68611794565b5b611d75868287016118dd565b935050602084013567ffffffffffffffff811115611d9657611d95611794565b5b611da286828701611d04565b9250506040611db3868287016117b0565b9150509250925092565b600081519050919050565b600082825260208201905092915050565b6000819050602082019050919050565b6000611df58383611a7b565b60208301905092915050565b6000602082019050919050565b6000611e1982611dbd565b611e238185611dc8565b9350611e2e83611dd9565b8060005b83811015611e5f578151611e468882611de9565b9750611e5183611e01565b925050600181019050611e32565b5085935050505092915050565b600081519050919050565b600082825260208201905092915050565b6000819050602082019050919050565b6000611ea48383611ad0565b905092915050565b6000602082019050919050565b6000611ec482611e6c565b611ece8185611e77565b935083602082028501611ee085611e88565b8060005b85811015611f1c5784840389528151611efd8582611e98565b9450611f0883611eac565b925060208a01995050600181019050611ee4565b50829750879550505050505092915050565b60006080820190508181036000830152611f488187611e0e565b90508181036020830152611f5c8186611eb9565b90508181036040830152611f708185611e0e565b9050611f7f606083018461175b565b95945050505050565b611f9181611987565b82525050565b6000602082019050611fac6000830184611f88565b92915050565b7f4f6e6c792061646d696e2063616e20706572666f726d20746869730000000000600082015250565b6000611fe8601b83611ba8565b9150611ff382611fb2565b602082019050919050565b6000602082019050818103600083015261201781611fdb565b9050919050565b7f456c656374696f6e206e6f742061637469766500000000000000000000000000600082015250565b6000612054601383611ba8565b915061205f8261201e565b602082019050919050565b6000602082019050818103600083015261208381612047565b9050919050565b7f43616e6469646174657320617265206c6f636b656420666f722074686973206560008201527f6c656374696f6e00000000000000000000000000000000000000000000000000602082015250565b60006120e6602783611ba8565b91506120f18261208a565b604082019050919050565b60006020820190508181036000830152612115816120d9565b9050919050565b7f4e487b7100000000000000000000000000000000000000000000000000000000600052601160045260246000fd5b600061215682611751565b91507fffffffffffffffffffffffffffffffffffffffffffffffffffffffffffffffff82036121885761218761211c565b5b600182019050919050565b7f4e487b7100000000000000000000000000000000000000000000000000000000600052602260045260246000fd5b600060028204905060018216806121da57607f821691505b6020821081036121ed576121ec612193565b5b50919050565b60008190508160005260206000209050919050565b60006020601f8301049050919050565b600082821b905092915050565b6000600883026122557fffffffffffffffffffffffffffffffffffffffffffffffffffffffffffffffff82612218565b61225f8683612218565b95508019841693508086168417925050509392505050565b6000819050919050565b600061229c61229761229284611751565b612277565b611751565b9050919050565b6000819050919050565b6122b683612281565b6122ca6122c2826122a3565b848454612225565b825550505050565b600090565b6122df6122d2565b6122ea8184846122ad565b505050565b5b8181101561230e576123036000826122d7565b6001810190506122f0565b5050565b601f82111561235357612324816121f3565b61232d84612208565b8101602085101561233c578190505b61235061234885612208565b8301826122ef565b50505b505050565b600082821c905092915050565b600061237660001984600802612358565b1980831691505092915050565b600061238f8383612365565b9150826002028217905092915050565b6123a882611a8a565b67ffffffffffffffff8111156123c1576123c06117e0565b5b6123cb82546121c2565b6123d6828285612312565b600060209050601f83116001811461240957600084156123f7578287015190505b6124018582612383565b865550612469565b601f198416612417866121f3565b60005b8281101561243f5784890151825560018201915060208501945060208101905061241a565b8683101561245c5784890151612458601f891682612365565b8355505b6001600288020188555050505b505050505050565b6000606082019050612486600083018661175b565b612493602083018561175b565b81810360408301526124a58184611bb9565b9050949350505050565b7f496e76616c696420656c656374696f6e49640000000000000000000000000000600082015250565b60006124e5601283611ba8565b91506124f0826124af565b602082019050919050565b60006020820190508181036000830152612514816124d8565b9050919050565b7f456c656374696f6e20686173206e6f7420656e64656420796574000000000000600082015250565b6000612551601a83611ba8565b915061255c8261251b565b602082019050919050565b6000602082019050818103600083015261258081612544565b9050919050565b600060808201905061259c600083018761175b565b6125a9602083018661175b565b81810360408301526125bb8185611bb9565b90506125ca606083018461175b565b95945050505050565b60006125de82611751565b91506125e983611751565b92508282019050808211156126015761260061211c565b5b92915050565b7f4e487b7100000000000000000000000000000000000000000000000000000000600052603260045260246000fd5b600060408201905061264b600083018561175b565b818103602083015261265d8184611bb9565b90509392505050565b7f456c656374696f6e206973206e6f742061637469766500000000000000000000600082015250565b600061269c601683611ba8565b91506126a782612666565b602082019050919050565b600060208201905081810360008301526126cb8161268f565b9050919050565b7f456c656374696f6e2068617320656e6465640000000000000000000000000000600082015250565b6000612708601283611ba8565b9150612713826126d2565b602082019050919050565b60006020820190508181036000830152612737816126fb565b9050919050565b7f496e76616c69642063616e646964617465496400000000000000000000000000600082015250565b6000612774601383611ba8565b915061277f8261273e565b602082019050919050565b600060208201905081810360008301526127a381612767565b9050919050565b7f596f75206861766520616c726561647920766f74656400000000000000000000600082015250565b60006127e0601683611ba8565b91506127eb826127aa565b602082019050919050565b6000602082019050818103600083015261280f816127d3565b9050919050565b600060608201905061282b600083018661175b565b612838602083018561175b565b6128456040830184611f88565b949350505050565b60008154905061285c816121c2565b9050919050565b818103612871575050612949565b61287a8261284d565b67ffffffffffffffff811115612893576128926117e0565b5b61289d82546121c2565b6128a8828285612312565b6000601f8311600181146128d757600084156128c5578287015490505b6128cf8582612383565b865550612942565b601f1984166128e5876121f3565b96506128f0866121f3565b60005b82811015612918578489015482556001820191506001850194506020810190506128f3565b868310156129355784890154612931601f891682612365565b8355505b6001600288020188555050505b5050505050505b565b600061295682611751565b9150600082036129695761296861211c565b5b600182039050919050565b6000604082019050612989600083018561175b565b612996602083018461175b565b939250505056fea264697066735822122030ac09e394798751b7232233ecd4c50b24903a4c82b009720ec5d4c30bb5e50d64736f6c634300081c0033",
  "linkReferences": {},
  "deployedLinkReferences": {}
}